:020000040800F2
:1000000000280020291F0008B91E0008BF1E000894
:10001000C51E0008CB1E0008D11E0008000000000D
:10002000000000000000000000000000D71E0008D3
:10003000E31E000800000000EF1E0008FB1E000881
:10004000711F0008711F0008711F0008711F000850
:10005000711F0008711F0008711F0008711F000840
:10006000711F0008711F0008711F0008711F000830
:10007000711F0008711F0008711F0008711F000820
:10008000711F0008711F0008711F0008711F000810
:10009000711F0008711F0008711F0008711F000800
:1000A000711F0008711F0008711F0008711F0008F0
:1000B000091F0008711F000800000000711F0008E0
:1000C000711F00080000000000000000711F000800
:1000D00000000000711F0008711F000800000000F0
:1000E000711F0008711F0008711F00080000000048
:1000F0000000000000000000000000000000000000
:0C01000000000000000000005FF808F1A3
:1001100010B5054C237833B9044B13B10448AFF341
:1001200000800123237010BD30000020000000007B
:10013000B835000808B5034B1BB103490348AFF3BA
:10014000008008BD0000000034000020B835000821
:1001500081F0004102E000BF83F0004330B54FEA78
:1001600041044FEA430594EA050F08BF90EA020FE5
:100170001FBF54EA000C55EA020C7FEA645C7FEA78
:10018000655C00F0E2804FEA5454D4EB5555B8BF9B
:100190006D420CDD2C4480EA020281EA030382EA0C
:1001A000000083EA010180EA020281EA0303362D9E
:1001B00088BF30BD11F0004F4FEA01314FF4801C71
:1001C0004CEA113102D0404261EB410113F0004F83
:1001D0004FEA03334CEA133302D0524263EB43033A
:1001E00094EA050F00F0A780A4F10104D5F1200ED8
:1001F0000DDB02FA0EFC22FA05F2801841F1000133
:1002000003FA0EF2801843FA05F359410EE0A5F106
:1002100020050EF1200E012A03FA0EFC28BF4CF037
:10022000020C43FA05F3C01851EBE37101F00045ED
:1002300007D54FF0000EDCF1000C7EEB00006EEBFA
:100240000101B1F5801F1BD3B1F5001F0CD3490884
:100250005FEA30004FEA3C0C04F101044FEA4452DB
:1002600012F5800F80F09A80BCF1004F08BF5FEA62
:10027000500C50F1000041EB045141EA050130BD42
:100280005FEA4C0C404141EB0101013C28BFB1F554
:10029000801FE9D291F0000F04BF01460020B1FA9F
:1002A00081F308BF2033A3F10B03B3F120020CDA72
:1002B0000C3208DD02F1140CC2F10C0201FA0CF050
:1002C00021FA02F10CE002F11402D8BFC2F1200CB5
:1002D00001FA02F120FA0CFCDCBF41EA0C0190406B
:1002E000E41AA2BF01EB0451294330BD6FEA0404B4
:1002F0001F3C1CDA0C340EDC04F11404C4F120029F
:1003000020FA04F001FA02F340EA030021FA04F3B0
:1003100045EA030130BDC4F10C04C4F1200220FA07
:1003200002F001FA04F340EA0300294630BD21FA45
:1003300004F0294630BD94F0000F83F4801306BF0B
:1003400081F480110134013D4EE77FEA645C18BFFF
:100350007FEA655C29D094EA050F08BF90EA020F96
:1003600005D054EA000C04BF1946104630BD91EA8E
:10037000030F1EBF0021002030BD5FEA545C05D191
:100380004000494128BF41F0004130BD14F58004D0
:100390003CBF01F5801130BD01F0004545F0FE4144
:1003A00041F470014FF0000030BD7FEA645C1ABF79
:1003B000194610467FEA655C1CBF0B46024650EAB0
:1003C000013406BF52EA033591EA030F41F40021DC
:1003D00030BD00BF90F0000F04BF0021704730B562
:1003E0004FF4806404F132044FF000054FF0000137
:1003F00050E700BF90F0000F04BF0021704730B5F8
:100400004FF4806404F1320410F0004548BF4042CC
:100410004FF000013EE700BF42004FEAE2014FEA21
:1004200031014FEA02701FBF12F07F4393F07F4FFC
:1004300081F06051704732F07F4208BF704793F0FF
:100440007F4F04BF41F40021704730B54FF4607412
:1004500001F0004521F000411CE700BF50EA010215
:1004600008BF704730B54FF000050AE050EA0102BE
:1004700008BF704730B511F0004502D5404261EB2E
:1004800041014FF4806404F132045FEA915C3FF46F
:10049000D8AE4FF003025FEADC0C18BF03325FEA0C
:1004A000DC0C18BF033202EBDC02C2F1200300FABD
:1004B00003FC20FA02F001FA03FE40EA0E0021FAE2
:1004C00002F11444BDE600BF70B54FF0FF0C4CF4D0
:1004D000E06C1CEA11541DBF1CEA135594EA0C0F82
:1004E00095EA0C0F00F0DEF82C4481EA030621EABD
:1004F0004C5123EA4C5350EA013518BF52EA0335F8
:1005000041F4801143F4801338D0A0FB02CE4FF0A9
:100510000005E1FB02E506F00042E0FB03E54FF0D9
:100520000006E1FB03569CF0000F18BF4EF0010ED1
:10053000A4F1FF04B6F5007F64F5407404D25FEACD
:100540004E0E6D4146EB060642EAC62141EA555180
:100550004FEAC52040EA5E504FEACE2EB4F1FD0CC2
:1005600088BFBCF5E06F1ED8BEF1004F08BF5FEA40
:10057000500E50F1000041EB045170BD06F00046F2
:1005800046EA010140EA020081EA0301B4EB5C049F
:10059000C2BFD4EB0C0541EA045170BD41F4801197
:1005A0004FF0000E013C00F3AB8014F1360FDEBFBC
:1005B000002001F0004170BDC4F10004203C35DA98
:1005C0000C341BDC04F11404C4F1200500FA05F31B
:1005D00020FA04F001FA05F240EA020001F00042BC
:1005E00021F0004110EBD37021FA04F642EB060132
:1005F0005EEA430E08BF20EAD37070BDC4F10C045C
:10060000C4F1200500FA04F320FA05F001FA04F21F
:1006100040EA020001F0004110EBD37041F100010B
:100620005EEA430E08BF20EAD37070BDC4F1200516
:1006300000FA05F24EEA020E20FA04F301FA05F27E
:1006400043EA020321FA04F001F0004121FA04F226
:1006500020EA020000EBD3705EEA430E08BF20EAF6
:10066000D37070BD94F0000F0FD101F00046400030
:1006700041EB010111F4801F08BF013CF7D041EAB2
:10068000060195F0000F18BF704703F000465200B6
:1006900043EB030313F4801F08BF013DF7D043EA87
:1006A0000603704794EA0C0F0CEA135518BF95EA3D
:1006B0000C0F0CD050EA410618BF52EA4306D1D1C4
:1006C00081EA030101F000414FF0000070BD50EAE3
:1006D000410606BF1046194652EA430619D094EA6D
:1006E0000C0F02D150EA013613D195EA0C0F05D157
:1006F00052EA03361CBF104619460AD181EA0301AB
:1007000001F0004141F0FE4141F470014FF0000062
:1007100070BD41F0FE4141F4780170BD70B54FF0FD
:10072000FF0C4CF4E06C1CEA11541DBF1CEA13557D
:1007300094EA0C0F95EA0C0F00F0A7F8A4EB05045F
:1007400081EA030E52EA03354FEA013100F0888056
:100750004FEA03334FF0805545EA131343EA12631F
:100760004FEA022245EA111545EA10654FEA0026D4
:100770000EF000419D4208BF964244F1FD0404F58D
:10078000407402D25B084FEA3202B61A65EB0305E9
:100790005B084FEA32024FF480104FF4002CB6EBA6
:1007A000020E75EB030E22BFB61A754640EA0C0026
:1007B0005B084FEA3202B6EB020E75EB030E22BF66
:1007C000B61A754640EA5C005B084FEA3202B6EBA7
:1007D000020E75EB030E22BFB61A754640EA9C0066
:1007E0005B084FEA3202B6EB020E75EB030E22BF36
:1007F000B61A754640EADC0055EA060E18D04FEAF4
:10080000051545EA16754FEA06164FEAC30343EA93
:1008100052734FEAC2025FEA1C1CC0D111F4801F60
:100820000BD141EA00014FF000004FF0004CB6E759
:1008300011F4801F04BF01430020B4F1FD0C88BFF8
:10084000BCF5E06F3FF6AFAEB5EB030C04BFB6EB03
:10085000020C5FEA500C50F1000041EB045170BDF6
:100860000EF0004E4EEA113114EB5C04C2BFD4EB23
:100870000C0541EA045170BD41F480114FF0000EA7
:10088000013C90E645EA060E8DE60CEA135594EA23
:100890000C0F08BF95EA0C0F3FF43BAF94EA0C0F26
:1008A0000AD150EA01347FF434AF95EA0C0F7FF49B
:1008B00025AF104619462CE795EA0C0F06D152EAEF
:1008C00003353FF4FDAE1046194622E750EA4106D3
:1008D00018BF52EA43067FF4C5AE50EA41047FF4E4
:1008E0000DAF52EA43057FF4EBAE12E74FEA410247
:1008F00012F5001215D211D56FF47873B3EB625272
:1009000012D94FEAC12343F0004343EA505311F098
:10091000004F23FA02F018BF404270474FF000002A
:10092000704750EA013005D111F0004008BF6FF068
:10093000004070474FF00000704700BF80B586B0A0
:1009400000AF7860404A07F10C0307CA03C31A805E
:1009500007F10C027B6813441B7803F00103002BA2
:100960000CBF01230023DBB21A460121374801F0F6
:1009700002FE07F10C027B6813441B7803F00203AC
:10098000002B0CBF01230023DBB21A4602212F48A3
:1009900001F0F1FD07F10C027B6813441B7803F0B2
:1009A0000403002B0CBF01230023DBB21A460421F1
:1009B000264801F0E0FD07F10C027B6813441B7828
:1009C00003F00803002B0CBF01230023DBB21A46FF
:1009D00008211E4801F0CFFD07F10C027B6813448B
:1009E0001B7803F01003002B0CBF01230023DBB2A4
:1009F0001A461021154801F0BEFD07F10C027B6874
:100A000013441B7803F02003002B0CBF01230023A9
:100A1000DBB21A4620210D4801F0ADFD07F10C02B2
:100A20007B6813441B7803F04003002B0CBF0123A9
:100A30000023DBB21A464021044801F09CFD00BFB0
:100A40001837BD4680BD00BFD0350008000C0140FE
:100A500080B586B000AF7860434A07F10C0307CA3F
:100A600003C31A8007F10C027B6813441B7803F060
:100A70000103002B0CBF01230023DBB21A468021A7
:100A80003A4801F078FD07F10C027B6813441B78AB
:100A900003F00203002B0CBF01230023DBB21A4634
:100AA0004FF48071314801F066FD07F10C027B685C
:100AB00013441B7803F00403002B0CBF0123002315
:100AC000DBB21A464FF40071284801F054FD07F1DB
:100AD0000C027B6813441B7803F00803002B0CBF47
:100AE00001230023DBB21A464FF480611F4801F056
:100AF00042FD07F10C027B6813441B7803F01003DE
:100B0000002B0CBF01230023DBB21A464FF4006117
:100B1000164801F030FD07F10C027B6813441B7886
:100B200003F02003002B0CBF01230023DBB21A4685
:100B30004FF480510D4801F01EFD07F10C027B6857
:100B400013441B7803F04003002B0CBF0123002348
:100B5000DBB21A464FF40051044801F00CFD00BF0F
:100B60001837BD4680BD00BFD0350008000C0140DD
:100B700080B582B000AF78607B68002B03D07B68C3
:100B8000012B26D04BE0284B01221A6000224FF4A3
:100B90008061264801F0EFFC00224FF400612348F9
:100BA00001F0E9FC01224FF48051204801F0E3FC00
:100BB00001224FF400511D4801F0DDFC1C4B1B6865
:100BC0001846FFF7BBFE1A4B5B681846FFF740FF5D
:100BD00025E0154B00221A6001224FF48061134872
:100BE00001F0C9FC01224FF40061104801F0C3FC80
:100BF00000224FF480510D4801F0BDFC00224FF45B
:100C000000510A4801F0B7FC094B9B681846FFF7F2
:100C100095FE074BDB681846FFF71AFF00BF00BFC1
:100C20000837BD4680BD00BF4C00002000080140D1
:100C30000000002080B400AF954B1A68954B1B68EC
:100C40009A421FDC934B1A68914B1B68D31A924A45
:100C500082FB03129210DB17D31A904A13608D4B5C
:100C60001A688B4B1B68D11A8B4B83FB01239A109C
:100C7000CB17D21A13469B0013445B00CA1A874B4A
:100C80005A6059E0834B1A68854B1B681A44804BA5
:100C90001B689A4225DB7F4B1A68814B1B681A44FC
:100CA0007B4B1B68D31A7C4A82FB03129210DB1722
:100CB000D31A7A4A1360774B1A68794B1B681A4427
:100CC000734B1B68D11A744B83FB01239A10CB170B
:100CD000D21A13469B0013445B00CA1A6F4B5A602A
:100CE0002AE06C4B1A686E4B1B681A446D4B1B68EC
:100CF0001A44674B1B68D31A674A82FB031292108F
:100D0000DB17D31A654A1360624B1A68644B1B6881
:100D10001A44644B1B681A445D4B1B68D11A5E4B26
:100D200083FB01239A10CB17D21A13469B0013445E
:100D30005B00CA1A594B5A60554B1B680133544A21
:100D40001360544B1A68574B1B681A44544B1B686A
:100D50001A444F4B1B689A4202DA4D4B01221A602B
:100D6000514B1A684E4B1B689A421FDC4C4B1A6859
:100D70004D4B1B68D31A484A82FB03129210DB17B3
:100D8000D31A464A9360464B1A68474B1B68D11AE0
:100D9000414B83FB01239A10CB17D21A13469B00B9
:100DA00013445B00CA1A3D4BDA6059E03D4B1A68A8
:100DB0003B4B1B681A443C4B1B689A4225DB394B62
:100DC0001A68374B1B681A44374B1B68D31A324AD0
:100DD00082FB03129210DB17D31A304A9360314B17
:100DE0001A682F4B1B681A442F4B1B68D11A2A4BC9
:100DF00083FB01239A10CB17D21A13469B0013448E
:100E00005B00CA1A254BDA602AE0224B1A68244B91
:100E10001B681A44234B1B681A44234B1B68D31AC4
:100E20001D4A82FB03129210DB17D31A1B4A9360F0
:100E3000184B1A681A4B1B681A441A4B1B681A4441
:100E4000194B1B68D11A144B83FB01239A10CB1743
:100E5000D21A13469B0013445B00CA1A0F4BDA6088
:100E6000114B1B680133104A13600A4B1A680D4B73
:100E70001B681A440A4B1B681A440B4B1B689A42A6
:100E800002DA094B01221A6000BFBD4680BC7047E0
:100E90001000002018000020676666660000002031
:100EA000200000201C0000201400002080B400AFAF
:100EB000114B00221A60104B02225A600F4B1B6824
:100EC0000F4A82FB03129210DB17D31A0A4A93606F
:100ED0000A4B19680A4B83FB01239A10CB17D21ACD
:100EE00013469B0013445B00CA1A034BDA6000BF31
:100EF000BD4680BC704700BF0000002018000020E5
:100F00006766666680B400AF114B00221A60104B12
:100F100003225A600F4B1B680F4A82FB0312921088
:100F2000DB17D31A0A4A93600A4B19680A4B83FBF2
:100F300001239A10CB17D21A13469B0013445B006F
:100F4000CA1A034BDA6000BFBD4680BC704700BFC1
:100F5000000000201C0000206766666680B400AFB9
:100F6000114B00221A60104B04225A600F4B1B6871
:100F70000F4A82FB03129210DB17D31A0A4A9360BE
:100F80000A4B19680A4B83FB01239A10CB17D21A1C
:100F900013469B0013445B00CA1A034BDA6000BF80
:100FA000BD4680BC704700BF00000020200000202C
:100FB0006766666680B582B000AF78607B680E2B8E
:100FC00059D801A252F823F0051000087710000844
:100FD00077100008771000087710000877100008D5
:100FE00077100008771000087710000877100008C5
:100FF00077100008131000082D1000084710000893
:101000005F10000801224FF47C711D4801F0B3FA13
:1010100032E000224FF40471194801F0ACFA0122C9
:101020004FF4F071164801F0A6FA25E000224FF4C3
:101030008871134801F09FFA01224FF4387110486B
:1010400001F099FA18E00022C0210D4801F093FA4E
:1010500001224FF44C710A4801F08DFA0CE0002295
:10106000A021074801F087FA01224FF45471044887
:1010700001F081FA00E000BF00BF0837BD4680BD27
:101080000008014080B582B000AF78607B68292BF2
:101090004FD07B68292B58DC7B681F2B39D07B68AD
:1010A0001F2B52DC7B68002B03D07B68152B21D0D3
:1010B0004BE000221021274801F05DFA0022802138
:1010C000244801F058FA01222021224801F053FA65
:1010D00001224FF480711F4801F04DFA0122402196
:1010E0001C4801F048FA01224FF40071194801F040
:1010F00042FA2BE001224FF45871164801F03BFAF6
:101100001021144801F04FFA8021124801F04BFAE7
:101110001CE001224FF434710E4801F02CFA20211A
:101120000C4801F040FA4FF480710A4801F03BFA94
:101130000CE001224FF4D871064801F01CFA4FF47C
:101140001071044801F02FFA00E000BF00BF08371B
:10115000BD4680BD0008014080B500AF9F4B1B68B5
:101160000E2B00F2308101A252F823F0A9110008E1
:10117000B1110008C7130008C7130008C7130008FF
:10118000C7130008C7130008C7130008C7130008D7
:10119000C7130008C71300080D1200087D120008CD
:1011A000EB120008591300088C4B01221A6013E15E
:1011B0008A4B0B221A600020FFF7FCFE884B0122AD
:1011C0001A60884B01221A60874B00221A60FFF7D1
:1011D00031FD854B1B681846FFF7CAFC834B1B6823
:1011E0004FF47A7202FB03F31946002000F0A8FDC9
:1011F0004FF47A71012000F0A3FD4FF4FA71022040
:1012000000F09EFD032000F0B9FDE5E00B20FFF7A4
:10121000D1FE774B1B68012B0CD1704B0C221A604E
:10122000744B1B684FF47A7202FB03F319460020DB
:1012300000F086FD6E4B5B68012B06D1FFF7FAFCD0
:101240004FF47A71012000F07BFD694B9B68012B04
:1012500009D1654B1B681846FFF78AFC4FF4FA71F9
:10126000022000F06DFD002000F040FB0346012B42
:1012700040F0AB80594B02221A60A6E00C20FFF729
:1012800099FE5B4B1B68012B0CD1544B0D221A604D
:10129000564B1B684FF47A7202FB03F31946002089
:1012A00000F04EFD524B5B68012B06D1FFF7C2FCEC
:1012B0004FF47A71012000F043FD4D4B9B68012BE8
:1012C00009D1494B1B681846FFF752FC4FF4FA71DD
:1012D000022000F035FD002000F008FB0346012B42
:1012E00075D13E4B02221A6071E00D20FFF762FEBD
:1012F0003F4B1B68012B0CD1384B0E221A603D4B23
:101300001B684FF47A7202FB03F31946002000F0C9
:1013100017FD374B5B68012B06D1FFF78BFC4FF4B1
:101320007A71012000F00CFD314B9B68012B09D133
:101330002D4B1B681846FFF71BFC4FF4FA71022077
:1013400000F0FEFC002000F0D1FA0346012B40D152
:10135000224B02221A603CE00E20FFF72BFE244BAA
:101360001B68012B0CD11D4B0B221A601F4B1B68F5
:101370004FF47A7202FB03F31946002000F0E0FC00
:101380001B4B5B68012B06D1FFF754FC4FF47A71BD
:10139000012000F0D5FC164B9B68012B09D1124BA4
:1013A0001B681846FFF7E4FB4FF4FA71022000F0C7
:1013B000C7FC002000F09AFA0346012B0BD1074B23
:1013C00002221A6007E000BF06E000BF04E000BF91
:1013D00002E000BF00E000BF00BF80BD5000002061
:1013E00010000020140000204C00002020000020ED
:1013F000800000201C00002080B500AFC34B1B689C
:10140000023B282B00F2578201A252F823F000BFC2
:10141000B5140008FB15000869170008B718000884
:10142000B7180008B7180008B7180008B718000860
:10143000B7180008B7180008B7180008B718000850
:10144000B7180008B7180008B7180008B718000840
:10145000B7180008B7180008B7180008F7140008F4
:1014600075150008B7180008B7180008B718000865
:10147000B7180008B7180008B7180008B718000810
:10148000B71800083D160008B7160008B71800087E
:10149000B7180008B7180008B7180008B7180008F0
:1014A000B7180008B7180008B7180008AB170008ED
:1014B0002D1800080020FFF7E5FD954B00221A606B
:1014C000FFF7F4FC924B1B681846FFF751FB4FF4F3
:1014D000FA71022000F034FC4FF4FA71032000F09E
:1014E0002FFC002000F04AFC012000F047FC874B55
:1014F00015221A60ECE1874BDB68012B07D14FF412
:10150000FA71032000F01CFC1520FFF7BBFD814B96
:101510009B68012B0BD14FF4FA71022000F010FCF4
:10152000FFF7C4FC7A4B1B681846FFF721FB00202D
:1015300000F0DCF90346012B02D1744B03221A6040
:10154000012000F0D3F90346012B40F0B6816F4B28
:1015500016221A60704B1B68622B05DD6F4B1B68EF
:1015600001336D4A1360A8E16B4B1B6801336A4A73
:101570001360A2E1674BDB68012B07D14FF4FA71CE
:10158000032000F0DDFB1520FFF77CFD614B9B681D
:10159000012B0BD14FF4FA71022000F0D1FBFFF7C1
:1015A00085FC5B4B1B681846FFF7E2FA012000F050
:1015B0009DF90346012B0ED1574B1B68622B05DDAD
:1015C000564B1B680133544A136004E0524B1B68AE
:1015D0000133514A1360022000F088F90346012BC1
:1015E00040F06D81494B15221A604B4B1A684B4BEA
:1015F0001B68D31A4A4A136061E11F20FFF742FDBE
:10160000434B00221A60FFF751FC414B1B68184600
:10161000FFF7AEFA4FF4FA71022000F091FB4FF49D
:10162000FA71032000F08CFB002000F0A7FB0120E2
:1016300000F0A4FB354B1F221A6049E1354BDB68F3
:10164000012B07D14FF4FA71032000F079FB1F2022
:10165000FFF718FD2F4B9B68012B0BD14FF4FA714C
:10166000022000F06DFBFFF74DFC294B1B6818466C
:10167000FFF77EFA002000F039F90346012B02D172
:10168000224B04221A60012000F030F90346012B9E
:1016900040F017811D4B20221A60204B1B68042B41
:1016A00003DD1E4B01221A600BE11C4B1B6801334A
:1016B0001A4A136005E1174BDB68012B07D14FF481
:1016C000FA71032000F03CFB1F20FFF7DBFC114BFD
:1016D0009B68012B0BD14FF4FA71022000F030FB14
:1016E000FFF710FC0A4B1B681846FFF741FA012070
:1016F00000F0FCF80346012B19D1084B1B68042BA2
:1017000010DD064B01221A6011E000BF50000020DE
:101710004C00002080000020180000201C00002049
:10172000200000206B4B1B6801336A4A13600220C3
:1017300000F0DCF80346012B40F0C580664B1F2209
:101740001A60664B1A68634B1B689A4204DC614B53
:101750001B680133614A1360604B1A685D4B1B685C
:10176000D31A5F4A1360AEE02920FFF78BFC5D4B74
:1017700000221A60FFF79AFB5A4B1B681846FFF7C6
:10178000F7F94FF4FA71022000F0DAFA4FF4FA7127
:10179000032000F0D5FA002000F0F0FA012000F05C
:1017A000EDFA4D4B29221A6092E04F4BDB68012B7A
:1017B00007D14FF4FA71032000F0C2FA2920FFF795
:1017C00061FC494B9B68012B0BD14FF4FA7102204D
:1017D00000F0B6FAFFF7C2FB424B1B681846FFF752
:1017E000C7F9002000F082F80346012B02D13A4BE2
:1017F00001221A60012000F079F80346012B64D120
:10180000354B2A221A60354B1A68324B1B68D21AA4
:10181000334B1B689A4203DC314B01221A6054E0BF
:101820002F4B1B6801332E4A13604EE02E4BDB68B2
:10183000012B07D14FF4FA71032000F081FA29201F
:10184000FFF720FC284B9B68012B0BD14FF4FA715A
:10185000022000F075FAFFF781FB224B1B68184647
:10186000FFF786F9012000F041F80346012B11D162
:101870001A4B1A68174B1B68D21A194B1B689A42ED
:1018800003DC174B01221A6004E0154B1B6801337F
:10189000134A1360022000F029F80346012B16D1E9
:1018A0000D4B29221A600E4B1A680A4B1B68134411
:1018B0000A4A13600BE000BF0AE000BF08E000BF67
:1018C00006E000BF04E000BF02E000BF00E000BF90
:1018D00000BF80BD1C000020500000201800002028
:1018E000200000204C0000208000002080B483B045
:1018F00000AF7860094A7B6852F82330012B06D18B
:10190000064A7B68002142F82310012300E00023EF
:1019100018460C37BD4680BC704700BF90000020C1
:1019200080B582B000AF00237B60A0E0544A7B68A2
:1019300013441978534A7B6813440A461A70524A72
:101940007B68134419784E4A7B6813440A461A7020
:101950007B68022B21D07B68022B2ADC7B68002B62
:1019600003D07B68012B0CD023E00221474800F014
:10197000EBFD03461946444A7B6813440A461A7035
:1019800018E00421414800F0DFFD034619463E4AB5
:101990007B6813440A461A700CE008213B4800F0AB
:1019A000D3FD03461946384A7B6813440A461A7029
:1019B00000E000BF344A7B6813441A7830497B68E2
:1019C0000B441B789A4223D12F4A7B6813441A7820
:1019D0002C497B680B441B789A4219D12C4A7B68AE
:1019E00013441B78012B0AD1274A7B6813441B78C8
:1019F000002B04D1274A7B68012142F82310224A98
:101A00007B6813441978224A7B6813440A461A708B
:101A10001F4A7B6813441B78002B16D11E4A7B6833
:101A200032F81330632B0AD81B4A7B6832F8133024
:101A3000013399B2184A7B6822F8131014E0174A50
:101A40007B68134401221A700EE0124A7B68002161
:101A500042F82310104A7B68002122F813100F4A25
:101A60007B68134400221A707B6801337B607B68BB
:101A7000022B7FF75BAF00BF00BF0837BD4680BDBC
:101A80005C00002060000020580000200008014099
:101A90005400002090000020680000206400002016
:101AA00080B500AF00F066FA00F00EF800F0D4F850
:101AB00000F046F8034801F0BBF9FFF74DFBFFF7D4
:101AC0009BFCFAE79C00002080B590B000AF07F1C6
:101AD000180328220021184601F066FD3B1D002254
:101AE0001A605A609A60DA601A610223BB610123AE
:101AF000BB621023FB6200237B6307F118031846C7
:101B000000F06AFD0346002B01D000F013F90F230B
:101B10007B600023BB600023FB6000233B6100234C
:101B20007B613B1D0021184600F0D6FF0346002BC9
:101B300001D000F0FFF800BF4037BD4680BD000077
:101B4000B0B586B000AF07F1080300221A605A60F2
:101B50009A60DA603B4600221A605A603A4B4FF0B6
:101B600080421A60384B41F63F725A60364B002271
:101B70009A60354B0922DA60334B00221A61324BEE
:101B800000229A61304801F003F90346002B01D08E
:101B900000F0D0F84FF48053BB6007F108031946FA
:101BA000294801F099FA0346002B01D000F0C2F851
:101BB00000233B6000237B603B461946224801F02E
:101BC00065FC0346002B01D000F0B4F81E4B5B68A7
:101BD00001331846FEF7FEFB02460B4618A1D1E979
:101BE0000001FEF79BFD02460B4614461D46164BB0
:101BF000DB6801331846FEF7EDFB02460B46204634
:101C00002946FEF78BFD02460B464FF000000F49B8
:101C1000FEF784FD02460B46104619464FF00002BF
:101C20000B4BFEF751FC02460B4610461946FEF7D9
:101C30005DFE0346074A136000BF1837BD46B0BDBE
:101C40000000000080845E419C0000200000F03F06
:101C500000408F40E400002080B586B000AF07F15F
:101C6000080300221A605A609A60DA60284B9B6968
:101C7000274A43F004039361254B9B6903F0040357
:101C80007B607B68224B9B69214A43F00803936188
:101C90001F4B9B6903F008033B603B68002243F63F
:101CA000F0711C4800F067FC002243F6FF711A48EF
:101CB00000F061FC0E23BB600023FB6001233B614D
:101CC00007F108031946134800F0C4FA43F6F0730D
:101CD000BB600123FB6000233B6102237B6107F1B2
:101CE000080319460B4800F0B5FA43F6FF73BB60D2
:101CF0000123FB6000233B6102237B6107F10803A2
:101D00001946054800F0A6FA00BF1837BD4680BD49
:101D10000010024000080140000C014080B582B074
:101D200000AF786000F042F8FFF7FAFD00BF083717
:101D3000BD4680BD80B400AF72B600BFFEE70000B4
:101D400080B483B000AF78603960094B1B683A6893
:101D500092FBF3F207497B6841F82320064A7B682F
:101D6000002142F8231000BF0C37BD4680BC7047ED
:101D7000E4000020700000208000002080B483B0C8
:101D800000AF7860074A7B68002142F82310064ABA
:101D90007B68002142F8231000BF0C37BD4680BC91
:101DA000704700BF700000208000002080B483B026
:101DB00000AF00237B601CE0124A7B6852F823309E
:101DC000002B13DD0F4A7B6852F823305A1E0D4951
:101DD0007B6841F823200B4A7B6852F82330002BA4
:101DE00004DC094A7B68012142F823107B68013337
:101DF0007B607B68032BDFDD00BF00BF0C37BD4677
:101E000080BC7047700000208000002080B485B046
:101E100000AF154B9B69144A43F001039361124BC9
:101E20009B6903F00103BB60BB680F4BDB690E4A83
:101E300043F08053D3610C4BDB6903F080537B602C
:101E40007B680A4B5B68FB60FB6823F0E063FB6028
:101E5000FB6843F08063FB60044AFB68536000BF8B
:101E60001437BD4680BC704700100240000001409E
:101E700080B584B000AF78607B681B68B3F1804F99
:101E800013D10C4BDB690B4A43F00103D361094BBF
:101E9000DB6903F00103FB60FB68002200211C20CA
:101EA00000F0A1F91C2000F0BAF900BF1037BD46C0
:101EB00080BD00BF0010024080B400AFFEE780B4D8
:101EC00000AFFEE780B400AFFEE780B400AFFEE7EE
:101ED00080B400AFFEE780B400AF00BFBD4680BC59
:101EE000704780B400AF00BFBD4680BC704780B46F
:101EF00000AF00BFBD4680BC704780B500AF00F0AA
:101F00007FF800BF80BD000080B500AF024800F040
:101F1000DBFF00BF80BD00BF9C00002080B400AF8D
:101F200000BFBD4680BC7047FFF7F8FF0B480C4967
:101F30000C4A002302E0D458C4500433C4188C4225
:101F4000F9D3094A094C002301E013600432A2428C
:101F5000FBD301F005FBFFF7A3FD70470000002055
:101F6000300000200836000830000020EC0000207F
:101F7000FEE7000080B500AF084B1B68074A43F03E
:101F800010031360032000F023F90F2000F008F87D
:101F9000FFF73CFF0023184680BD00BF0020024031
:101FA00080B582B000AF7860124B1A68124B1B7874
:101FB00019464FF47A73B3FBF1F3B2FBF3F318460F
:101FC00000F03BF90346002B01D001230EE07B68B3
:101FD0000F2B0AD8002279684FF0FF3000F003F988
:101FE000064A7B681360002300E001231846083787
:101FF000BD4680BD240000202C00002028000020C9
:1020000080B400AF054B1B781A46054B1B68134480
:10201000034A136000BFBD4680BC70472C000020FF
:10202000E800002080B400AF024B1B681846BD4694
:1020300080BC7047E800002080B485B000AF7860B5
:102040007B6803F00703FB600C4BDB68BB60BA687E
:102050004FF6FF031340BB60FB681A02BB681343D3
:1020600043F0BF6343F40033BB60044ABB68D360F2
:1020700000BF1437BD4680BC704700BF00ED00E0D4
:1020800080B400AF044BDB681B0A03F0070318465B
:10209000BD4680BC704700BF00ED00E080B483B057
:1020A00000AF0346FB7197F90730002B0BDBFB7980
:1020B00003F01F02064997F907305B09012000FA77
:1020C00002F241F8232000BF0C37BD4680BC7047A8
:1020D00000E100E080B483B000AF03463960FB71DB
:1020E00097F90730002B0ADB3B68DAB20C4997F905
:1020F00007301201D2B20B4483F800230AE03B6898
:10210000DAB20849FB7903F00F03043B1201D2B2A3
:102110000B441A7600BF0C37BD4680BC704700BF29
:1021200000E100E000ED00E080B489B000AFF860AD
:10213000B9607A60FB6803F00703FB61FB69C3F1D8
:102140000703042B28BF0423BB61FB690433062B60
:1021500002D9FB69033B00E000237B614FF0FF32B3
:10216000BB6902FA03F3DA43BB681A407B699A4001
:102170004FF0FF317B6901FA03F3D9437B680B40D1
:10218000134318462437BD4680BC704780B582B0E3
:1021900000AF78607B68013BB3F1807F01D30123FE
:1021A0000FE00A4A7B68013B53600F214FF0FF307C
:1021B000FFF790FF054B00229A60044B07221A603C
:1021C000002318460837BD4680BD00BF10E000E080
:1021D00080B582B000AF78607868FFF72DFF00BF50
:1021E0000837BD4680BD80B586B000AF0346B960F4
:1021F0007A60FB7300237B61FFF742FF78617A68A6
:10220000B9687869FFF790FF024697F90F301146D9
:102210001846FFF75FFF00BF1837BD4680BD80B589
:1022200082B000AF0346FB7197F907301846FFF7FD
:1022300035FF00BF0837BD4680BD80B582B000AF16
:1022400078607868FFF7A2FF034618460837BD4656
:1022500080BD000080B48BB000AF7860396000238F
:102260007B6200233B6248E101227B6A02FA03F3AE
:10227000FB613B681B68FA691340BB61BA69FB6983
:102280009A4240F037813B685B68A34A93425ED034
:10229000A14A934275D8A14A934258D09F4A93428B
:1022A0006FD89F4A934252D09D4A934269D89D4A23
:1022B00093424CD09B4A934263D89B4A934246D068
:1022C000994A93425DD8122B2AD8122B59D801A2D1
:1022D00052F823F04F230008292300083B2300086D
:1022E0007D2300088323000883230008832300083C
:1022F0008323000883230008832300088323000826
:102300008323000883230008832300088323000815
:102310008323000883230008312300084523000895
:10232000824A934213D02CE03B68DB683B6229E091
:102330003B68DB6804333B6224E03B68DB680833BE
:102340003B621FE03B68DB680C333B621AE03B6892
:102350009B68002B02D104233B6213E03B689B681F
:10236000012B05D108233B627B68FA691A6109E0F9
:1023700008233B627B68FA695A6103E000233B62F1
:1023800000E000BFBB69FF2B01D87B6801E07B68E0
:1023900004337B61BB69FF2B02D87B6A9B0002E0A0
:1023A0007B6A083B9B003B617B691A680F213B6994
:1023B00001FA03F3DB431A40396A3B6901FA03F37C
:1023C0001A437B691A603B685B6803F08053002BFB
:1023D00000F09080564B9B69554A43F0010393618E
:1023E000534B9B6903F00103BB60BB68514A7B6A96
:1023F0009B08023352F82330FB607B6A03F003032F
:102400009B000F2202FA03F3DB43FA681340FB60E0
:102410007B68494A93420DD07B68484A934207D073
:102420007B68474A934201D1022304E0032302E080
:10243000012300E000237A6A02F003029200934035
:10244000FA681343FB603B497B6A9B080233FA68D6
:1024500041F823203B685B6803F48013002B06D00F
:10246000384B9A683749BB6913438B6006E0354B9C
:102470009A68BB69DB43334913408B603B685B68F8
:1024800003F40013002B06D02E4BDA682D49BB69EC
:102490001343CB6006E02B4BDA68BB69DB43294969
:1024A0001340CB603B685B6803F40033002B06D01D
:1024B000244B5A682349BB6913434B6006E0214B08
:1024C0005A68BB69DB431F4913404B603B685B683C
:1024D00003F48033002B06D01A4B1A681949BB69E4
:1024E00013430B6006E0174B1A68BB69DB431549C1
:1024F00013400B607B6A01337B623B681A687B6A1E
:1025000022FA03F3002B7FF4AFAE00BF00BF2C37DD
:10251000BD4680BC704700BF000032100000311083
:102520000000221000002110000012100000111005
:10253000001002400000014000080140000C014072
:10254000001001400004014080B485B000AF786005
:102550000B467B807B689A687B881340002B02D0F7
:102560000123FB7301E00023FB73FB7B1846143748
:10257000BD4680BC704780B483B000AF78600B4626
:102580007B8013467B707B78002B03D07A887B6836
:102590001A6103E07B881A047B681A6100BF0C375C
:1025A000BD4680BC704780B485B000AF78600B46F4
:1025B0007B807B68DB68FB607A88FB6813401A04C9
:1025C000FB68D9437B880B401A437B681A6100BFC4
:1025D0001437BD4680BC704780B586B000AF7860C8
:1025E0007B68002B01D101236CE27B681B6803F040
:1025F0000103002B00F08780924B5B6803F00C0313
:10260000042B0CD08F4B5B6803F00C03082B12D10A
:102610008C4B5B6803F48033B3F5803F0BD1894B5F
:102620001B6803F40033002B6CD07B685B68002BC5
:1026300068D1012346E27B685B68B3F5803F06D131
:10264000804B1B687F4A43F4803313602EE07B6825
:102650005B68002B0CD17B4B1B687A4A23F48033D8
:102660001360784B1B68774A23F4802313601DE0C6
:102670007B685B68B3F5A02F0CD1724B1B68714A65
:1026800043F4802313606F4B1B686E4A43F480331E
:1026900013600BE06B4B1B686A4A23F480331360B2
:1026A000684B1B68674A23F4802313607B685B6870
:1026B000002B13D0FFF7B6FC386108E0FFF7B2FC3F
:1026C00002463B69D31A642B01D90323FAE15D4B1F
:1026D0001B6803F40033002BF0D014E0FFF7A2FCDA
:1026E000386108E0FFF79EFC02463B69D31A642B71
:1026F00001D90323E6E1534B1B6803F40033002B9D
:10270000F0D100E000BF7B681B6803F00203002BE0
:1027100063D04C4B5B6803F00C03002B0BD0494B90
:102720005B6803F00C03082B1CD1464B5B6803F479
:102730008033002B16D1434B1B6803F00203002BA0
:1027400005D07B681B69012B01D00123BAE13D4B09
:102750001B6823F0F8027B685B69DB00394913438F
:102760000B603AE07B681B69002B20D0364B0122BE
:102770001A60FFF757FC386108E0FFF753FC024688
:102780003B69D31A022B01D903239BE12D4B1B6814
:1027900003F00203002BF0D02A4B1B6823F0F80251
:1027A0007B685B69DB00274913430B6015E0264B10
:1027B00000221A60FFF736FC386108E0FFF732FCB0
:1027C00002463B69D31A022B01D903237AE11D4B40
:1027D0001B6803F00203002BF0D17B681B6803F039
:1027E0000803002B3AD07B689B69002B19D0174B4C
:1027F00001221A60FFF716FC386108E0FFF712FCAF
:1028000002463B69D31A022B01D903235AE10D4B2F
:102810005B6A03F00203002BF0D0012000F09AFA6B
:102820001CE00A4B00221A60FFF7FCFB38610FE046
:10283000FFF7F8FB02463B69D31A022B08D90323A2
:1028400040E100BF001002400000424280044242CA
:102850009E4B5B6A03F00203002BE9D17B681B6887
:1028600003F00403002B00F0A6800023FB75974BB8
:10287000DB6903F08053002B0DD1944BDB69934A45
:1028800043F08053D361914BDB6903F08053BB600D
:10289000BB680123FB758E4B1B6803F48073002B10
:1028A00018D18B4B1B688A4A43F480731360FFF77F
:1028B000B9FB386108E0FFF7B5FB02463B69D31A64
:1028C000642B01D90323FDE0814B1B6803F4807363
:1028D000002BF0D07B68DB68012B06D17B4B1B6A99
:1028E0007A4A43F0010313622DE07B68DB68002B1A
:1028F0000CD1764B1B6A754A23F001031362734BAC
:102900001B6A724A23F0040313621CE07B68DB68D5
:10291000052B0CD16D4B1B6A6C4A43F00403136208
:102920006A4B1B6A694A43F0010313620BE0674B71
:102930001B6A664A23F001031362644B1B6A634AF5
:1029400023F0040313627B68DB68002B15D0FFF7CC
:1029500069FB38610AE0FFF765FB02463B69D31A61
:1029600041F28832934201D90323ABE0574B1B6AF3
:1029700003F00203002BEED014E0FFF753FB3861A5
:102980000AE0FFF74FFB02463B69D31A41F2883257
:10299000934201D9032395E04C4B1B6A03F00203D9
:1029A000002BEED1FB7D012B05D1484BDB69474A5B
:1029B00023F08053D3617B68DB69002B00F08180BA
:1029C000424B5B6803F00C03082B61D07B68DB692A
:1029D000022B46D13F4B00221A60FFF723FB3861E0
:1029E00008E0FFF71FFB02463B69D31A022B01D90F
:1029F000032367E0354B1B6803F00073002BF0D115
:102A00007B681B6AB3F5803F08D1304B5B6823F4C9
:102A100000327B689B682D4913434B602B4B5B68EE
:102A200023F474127B68196A7B685B6A0B4327493D
:102A300013434B60274B01221A60FFF7F3FA38610A
:102A400008E0FFF7EFFA02463B69D31A022B01D9DF
:102A5000032337E01D4B1B6803F00073002BF0D0FD
:102A60002FE01C4B00221A60FFF7DCFA386108E007
:102A7000FFF7D8FA02463B69D31A022B01D9032388
:102A800020E0124B1B6803F00073002BF0D118E01C
:102A90007B68DB69012B01D1012313E00B4B5B68E1
:102AA000FB60FB6803F480327B681B6A9A4206D1A4
:102AB000FB6803F470127B685B6A9A4201D00123C1
:102AC00000E0002318461837BD4680BD00100240C4
:102AD000007000406000424280B584B000AF786072
:102AE00039607B68002B01D10123D0E06A4B1B6861
:102AF00003F007033A689A4210D9674B1B6823F02A
:102B0000070265493B6813430B60634B1B6803F086
:102B100007033A689A4201D00123B8E07B681B683A
:102B200003F00203002B20D07B681B6803F0040332
:102B3000002B05D0594B5B68584A43F4E06353605F
:102B40007B681B6803F00803002B05D0534B5B68C0
:102B5000524A43F460535360504B5B6823F0F002D9
:102B60007B689B684D4913434B607B681B6803F08F
:102B70000103002B40D07B685B68012B07D1474BDA
:102B80001B6803F40033002B15D101237FE07B6821
:102B90005B68022B07D1414B1B6803F00073002BCD
:102BA00009D1012373E03D4B1B6803F00203002BA6
:102BB00001D101236BE0394B5B6823F003027B6892
:102BC0005B68364913434B60FFF72CFAF8600AE064
:102BD000FFF728FA0246FB68D31A41F28832934283
:102BE00001D9032353E02D4B5B6803F00C027B6893
:102BF0005B689B009A42EBD1274B1B6803F00703ED
:102C00003A689A4210D2244B1B6823F007022249EB
:102C10003B6813430B60204B1B6803F007033A68C3
:102C20009A4201D0012332E07B681B6803F0040361
:102C3000002B08D0194B5B6823F4E0627B68DB68EB
:102C4000164913434B607B681B6803F00803002B95
:102C500009D0124B5B6823F460527B681B69DB0070
:102C60000E4913434B6000F021F802460B4B5B68A2
:102C70001B0903F00F030A49CB5C22FA03F3094A4C
:102C80001360094B1B681846FFF78AF900231846A2
:102C90001037BD4680BD00BF00200240001002403A
:102CA000DC350008240000202800002080B487B014
:102CB00000AF0023FB600023BB6000237B61002387
:102CC0007B6000233B611E4B5B68FB60FB6803F08D
:102CD0000C03042B02D0082B03D027E0194B3B61D7
:102CE00027E0FB689B0C03F00F03174AD35C7B6063
:102CF000FB6803F48033002B10D0114B5B685B0C36
:102D000003F00103114AD35CBB607B680D4A02FBF0
:102D100003F2BB68B2FBF3F37B6104E07B680C4A0F
:102D200002FB03F37B617B693B6102E0054B3B6186
:102D300000BF3B6918461C37BD4680BC704700BFCA
:102D40000010024000127A00EC350008FC35000843
:102D500000093D0080B485B000AF78600A4B1B6865
:102D60000A4AA2FB03235B0A7A6802FB03F3FB60B7
:102D700000BFFB685A1EFA60002BF9D100BF00BFEC
:102D80001437BD4680BC704724000020D34D62102C
:102D900080B582B000AF78607B68002B01D1012341
:102DA00041E07B6893F83D30DBB2002B06D17B68B5
:102DB000002283F83C207868FFF75AF87B680222EB
:102DC00083F83D207B681A687B68043319461046F7
:102DD00000F06EFA7B68012283F846207B680122AE
:102DE00083F83E207B68012283F83F207B68012224
:102DF00083F840207B68012283F841207B68012210
:102E000083F842207B68012283F843207B680122FB
:102E100083F844207B68012283F845207B680122E7
:102E200083F83D20002318460837BD4680BD0000CA
:102E300080B485B000AF78607B6893F83D30DBB23A
:102E4000012B01D0012335E07B68022283F83D206D
:102E50007B681B68DA687B681B6842F00102DA60F5
:102E60007B681B68164A934209D07B681B68B3F1E4
:102E7000804F04D07B681B68124A934211D17B6853
:102E80001B689B6803F00703FB60FB68062B10D0F0
:102E90007B681B681A687B681B6842F001021A6035
:102EA00007E07B681B681A687B681B6842F00102B8
:102EB0001A60002318461437BD4680BC704700BF17
:102EC000002C01400004004080B582B000AF786063
:102ED0007B681B681B6903F00203022B22D17B680D
:102EE0001B68DB6803F00203022B1BD17B681B68A5
:102EF0006FF002021A617B6801221A777B681B68F7
:102F00009B6903F00303002B03D0786800F0B4F949
:102F100005E0786800F0A7F9786800F0B6F97B68FA
:102F200000221A777B681B681B6903F00403042BDB
:102F300022D17B681B68DB6803F00403042B1BD1E0
:102F40007B681B686FF004021A617B6802221A77A3
:102F50007B681B689B6903F44073002B03D078687F
:102F600000F08AF905E0786800F07DF9786800F0F3
:102F70008CF97B6800221A777B681B681B6903F059
:102F80000803082B22D17B681B68DB6803F0080369
:102F9000082B1BD17B681B686FF008021A617B68E5
:102FA00004221A777B681B68DB6903F00303002B9C
:102FB00003D0786800F060F905E0786800F053F914
:102FC000786800F062F97B6800221A777B681B68DA
:102FD0001B6903F01003102B22D17B681B68DB6890
:102FE00003F01003102B1BD17B681B686FF01002DD
:102FF0001A617B6808221A777B681B68DB6903F417
:103000004073002B03D0786800F036F905E078684B
:1030100000F029F9786800F038F97B6800221A7707
:103020007B681B681B6903F00103012B0ED17B68D1
:103030001B68DB6803F00103012B07D17B681B6869
:103040006FF001021A617868FEF768FE7B681B6802
:103050001B6903F08003802B0ED17B681B68DB6843
:1030600003F08003802B07D17B681B686FF0800220
:103070001A61786800F06BFA7B681B681B6903F0C3
:103080004003402B0ED17B681B68DB6803F04003D4
:10309000402B07D17B681B686FF040021A6178688B
:1030A00000F0FCF87B681B681B6903F02003202BF1
:1030B0000ED17B681B68DB6803F02003202B07D14F
:1030C0007B681B686FF020021A61786800F036FA9E
:1030D00000BF0837BD4680BD80B584B000AF7860C2
:1030E00039600023FB737B6893F83C30012B01D1DE
:1030F0000223B4E07B68012283F83C207B68022233
:1031000083F83D207B681B689B68BB60BB6823F02D
:103110007703BB60BB6823F47F43BB607B681B689D
:10312000BA689A603B681B68B3F5005F3ED0B3F5A0
:10313000005F00F28780B3F5805F00F08680B3F512
:10314000805F7FD8702B1AD0702B7BD8602B50D02B
:10315000602B77D8502B3CD0502B73D8402B58D0B5
:10316000402B6FD8302B64D0302B6BD8202B60D005
:10317000202B67D8002B5CD0102B5AD062E07B68E4
:1031800018683B6899683B685A683B68DB6800F0E0
:103190005EF97B681B689B68BB60BB6843F0770384
:1031A000BB607B681B68BA689A604FE07B681868F0
:1031B0003B6899683B685A683B68DB6800F047F9F0
:1031C0007B681B689A687B681B6842F480429A603F
:1031D0003CE07B6818683B6859683B68DB681A46C6
:1031E00000F0BEF87B681B685021184600F015F906
:1031F0002CE07B6818683B6859683B68DB681A46B6
:1032000000F0DCF87B681B686021184600F005F9C7
:103210001CE07B6818683B6859683B68DB681A46A5
:1032200000F09EF87B681B684021184600F0F5F816
:103230000CE07B681A683B681B681946104600F072
:10324000ECF803E00123FB7300E000BF7B68012280
:1032500083F83D207B68002283F83C20FB7B1846E6
:103260001037BD4680BD80B483B000AF786000BF2A
:103270000C37BD4680BC704780B483B000AF786027
:1032800000BF0C37BD4680BC704780B483B000AF30
:10329000786000BF0C37BD4680BC704780B483B0F7
:1032A00000AF786000BF0C37BD4680BC704700009F
:1032B00080B485B000AF786039607B681B68FB60C4
:1032C0007B68254A934207D07B68B3F1804F03D0D7
:1032D0007B68224A934208D1FB6823F07003FB60AD
:1032E0003B685B68FA681343FB607B681A4A934249
:1032F00007D07B68B3F1804F03D07B68174A9342B5
:1033000008D1FB6823F44073FB603B68DB68FA6814
:103310001343FB60FB6823F080023B685B69134347
:10332000FB607B68FA681A603B689A687B68DA62BF
:103330003B681A687B689A627B68074A934203D1AC
:103340003B681A697B681A637B6801225A6100BF77
:103350001437BD4680BC7047002C0140000400407B
:1033600080B487B000AFF860B9607A60FB681B6A10
:103370007B61FB681B6A23F00102FB681A62FB6831
:103380009B693B613B6923F0F0033B617B681B0158
:103390003A6913433B617B6923F00A037B617A69D5
:1033A000BB6813437B61FB683A699A61FB687A6981
:1033B0001A6200BF1C37BD4680BC704780B487B01E
:1033C00000AFF860B9607A60FB681B6A7B61FB68DC
:1033D0001B6A23F01002FB681A62FB689B693B6161
:1033E0003B6923F470433B617B681B033A691343D9
:1033F0003B617B6923F0A0037B61BB681B017A6999
:1034000013437B61FB683A699A61FB687A691A62C7
:1034100000BF1C37BD4680BC704780B485B000AF8C
:10342000786039607B689B68FB60FB6823F0700301
:10343000FB603A68FB68134343F00703FB607B685B
:10344000FA689A6000BF1437BD4680BC704780B4EC
:1034500087B000AFF860B9607A603B60FB689B683A
:103460007B617B6923F47F437B613B681A027B6845
:103470001A43BB6813437A6913437B61FB687A691B
:103480009A6000BF1C37BD4680BC704780B485B0D1
:1034900000AF786039607B6893F83C30012B01D134
:1034A000022341E07B68012283F83C207B680222F2
:1034B00083F83D207B681B685B68FB607B681B684A
:1034C0009B68BB60FB6823F07003FB603B681B6874
:1034D000FA681343FB607B681B68FA685A607B6874
:1034E0001B68144A934209D07B681B68B3F1804F74
:1034F00004D07B681B68104A93420CD1BB6823F050
:103500008003BB603B685B68BA681343BB607B6841
:103510001B68BA689A607B68012283F83D207B684B
:10352000002283F83C20002318461437BD4680BC97
:10353000704700BF002C01400004004080B483B0FD
:1035400000AF786000BF0C37BD4680BC704780B4C8
:1035500083B000AF786000BF0C37BD4680BC7047B9
:1035600070B500260C4D0D4C641BA410A64209D169
:1035700000F022F800260A4D0A4C641BA410A64253
:1035800005D170BD55F8043B98470136EEE755F874
:10359000043B98470136F2E7003600080036000881
:1035A000003600080436000803460244934200D166
:1035B000704703F8011BF9E7F8B500BFF8BC08BC79
:1035C0009E467047F8B500BFF8BC08BC9E467047E1
:1035D0003F065B4F666D7D077F6F000000000000B7
:1035E00000000000010203040607080902030405A5
:1035F000060708090A0B0C0D0E0F1010010200003F
:043600003501000888
:0436040011010008A8
:1036080001000000020000000300000004000000A8
:103618000100000001000000050000000200000099
:10362800030000000024F400100000000100000066
:0400000508001F29A7
:00000001FF
